:100000000C9421010C9449010C9449010C94710742
:100010000C9471070C9471070C9449010C944901DC
:100020000C9449010C9449010C9449010C94490128
:100030000C9449010C9449010C9449010C94490118
:100040000C94CF060C9449010C943F070C941907AB
:100050000C9449010C9449010C9449010C944901F8
:100060000C9449010C94490107634236B79BD8A709
:100070001A39685618AEBAAB558C1D3CB7CC5763CD
:10008000BD6DEDFD753EF6177231BF000000803F7B
:1000900008000000BE922449123EABAAAA2ABECD97
:1000A000CCCC4C3E00000080BEABAAAAAA3E000009
:1000B0000000BF000000803F000000000008417801
:1000C000D3BB4387D1133D190E3CC3BD4282AD2B38
:1000D0003E68EC8276BED98FE1A93E4C80EFFFBE30
:1000E00001C4FF7F3F000000000000407A10F35A77
:1000F00000A0724E18090010A5D4E80000E8764868
:10010000170000E40B54020000CA9A3B000000E113
:10011000F505000080969800000040420F000000A6
:10012000A08601000000102700000000E803000086
:1001300000006400000000000A0000000000010050
:10014000000000002C76D888DC674F0823DFC1DF71
:10015000AE59E1B1B796E5E3E453C63AE651997674
:1001600096E8E6C28426EB898C9B62ED407C6FFCAE
:10017000EFBC9C9F40F2BAA56FA5F490055A2AF7F0
:100180005C936B6CF9676DC11BFCE0E40D47FEF5F9
:1001900020E6B500D0ED902E030094357705008061
:1001A000841E080000204E0A000000C80C333333C0
:1001B000330F986E12831141EF8D2114893BE65560
:1001C00016CFFEE6DB18D1844B381BF77C1D901D43
:1001D000A4BBE424203284725E228100C9F124ECA5
:1001E000A1E53D2700000000240027002A000000B0
:1001F00000080002010000030407000000000000E6
:10020000000000000000230026002900000000007C
:10021000250028002B000404040404040404020242
:100220000202020203030303030301020408102075
:100230004080010204081020010204081020E90790
:10024000340E11241FBECFEFD8E0DEBFCDBF26E0B5
:10025000ACEEB4E001C01D92AB33B207E1F714E09D
:10026000A0E0B1E0E8E2FEE202C005900D92AC3EF3
:10027000B107D9F711E0C0E2D1E004C02197FE0137
:100280000E940F15CF31D107C9F70E94E9080C94DD
:1002900007170C940000CF92DF92EF92FF92CF935A
:1002A000DF93B091EE05A0E08111AB2F8091EF05B7
:1002B00090E0880F991FAC014E5F5D4FC090F40530
:1002C000D090F505E090F605F090F70530E020E0DD
:1002D000FA01C591D491E881B90190E080E0EB2367
:1002E000EA130AC02F5F3F4F6C157D058E059F05F1
:1002F00078F36FEF7FEFCB01DF91CF91FF90EF901D
:10030000DF90CF900895833081F028F4813099F008
:100310008230A9F008958730A9F08830C9F0843080
:10032000B1F4809180008F7D03C0809180008F7731
:1003300080938000089584B58F7784BD089584B537
:100340008F7DFBCF8091B0008F778093B0000895B0
:100350008091B0008F7DF9CFCF93DF93282F30E0CD
:10036000F901E251FE4F8491F901E65DFD4FD49110
:10037000F901EA5EFD4FC491CC23A1F081110E94E6
:100380008301EC2FF0E0EE0FFF1FEE5FFD4FA59114
:10039000B491EC91ED2381E090E009F480E0DF91ED
:1003A000CF91089580E090E0FACF1F93CF93DF9331
:1003B000282F30E0F901E251FE4F8491F901E65D0A
:1003C000FD4FD491F901EA5EFD4FC491CC23A9F011
:1003D000162F81110E948301EC2FF0E0EE0FFF1F1A
:1003E000E45FFD4FA591B4918FB7F894EC91111192
:1003F00008C0D095DE23DC938FBFDF91CF911F9192
:100400000895DE2BF8CFCF93DF9390E0FC01E65DFB
:10041000FD4F24918A5E9D4FFC0184918823C9F091
:1004200090E0880F991FFC01EC51FE4FA591B4910B
:10043000FC01E45FFD4FC591D49161110DC09FB7E0
:10044000F8948C91209582238C938881282328838B
:100450009FBFDF91CF910895623051F49FB7F89418
:100460003C91822F809583238C93E8812E2BEFCFB4
:100470008FB7F894EC912E2B2C938FBFEACF8E3050
:1004800008F08E508770806480937C0080917A00A1
:10049000806480937A0080917A0086FDFCCF809101
:1004A00078009091790008953FB7F89480913905CC
:1004B00090913A05A0913B05B0913C0526B5A89BCB
:1004C00005C02F3F19F00196A11DB11D3FBFBA2FE6
:1004D000A92F982F8827BC01CD01620F711D811DA6
:1004E000911D42E0660F771F881F991F4A95D1F72B
:1004F00008958F929F92AF92BF92CF92DF92EF9228
:10050000FF924B015C010E9454026B017C010E942E
:1005100054026C197D098E099F09683E734081055C
:100520009105A8F321E0821A9108A108B10888EE8C
:10053000C80E83E0D81EE11CF11C81149104A104B3
:10054000B10429F7FF90EF90DF90CF90BF90AF906C
:100550009F908F900895CF92DF92EF92FF920F932A
:100560001F93CF93DF93CDB7DEB7C054D1400FB602
:10057000F894DEBF0FBECDBF2FB7F89480913D0534
:1005800090913E05A0913F05B09140052FBF40914D
:10059000F0055091F1056091F2057091F3058C0121
:1005A0009D01041B150B260B370BB901A801403D1B
:1005B00057406105710590F48091F805C05CDE4FED
:1005C0000FB6F894DEBF0FBECDBFDF91CF911F9164
:1005D0000F91FF90EF90DF90CF9008958093F005FA
:1005E0009093F105A093F205B093F3051092EB05FB
:1005F0001092EA051092E9051092E8051092E705BD
:1006000062E08091EC050E94030261E070E080E00E
:1006100090E00E94790261E08091EC050E94030263
:1006200060E08091EC050E94D5018091ED05855137
:10063000823020F58BE291E10197F1F762E0809141
:10064000EC050E9403028091F90590E0823091054B
:1006500038F0880F991F880F991F05970197F1F7B8
:10066000F89480E00E944B016F3F7F4F8F4F9F4F68
:1006700061F41092F805789480E0A0CF64E170E016
:1006800080E090E00E947902D9CF81E00E944B0186
:100690006F3F7F4F8F4F9F4F61F38E010F5F1F4F53
:1006A0006E018FEBC81A8EEFD80A780180E00E94A5
:1006B0004B01F701608371838283938381E00E9401
:1006C0004B01F7016483758386839783F8E0EF0E0F
:1006D000F11CEC14FD0451F7789430E020E0F801AF
:1006E000C080D180E280F38044815581668177812A
:1006F000FFEFCF16DF06EF06FF0631F04F3F8FEF1B
:1007000058076807780719F41092F805B5CFF90172
:1007100083E0F595E7958A95E1F7E951FA4F8081F5
:10072000880FC416D506E606F70610F180832F5F02
:100730003F4F085F1F4F2832310589F64091EB0586
:100740002091E7058091E805280F3327331F80911A
:10075000E905280F311D8091EA05820F932F911D25
:1007600099274817190681F681E08093F80526CF6E
:100770008160DCCFAF92BF92CF92DF92EF92FF9277
:100780000F931F93CF93DF936C017B018B01040FB9
:10079000151FEB015E01AE18BF08C017D10759F055
:1007A0006991D601ED91FC910190F081E02DC60197
:1007B0000995892B79F7C501DF91CF911F910F9191
:1007C000FF90EF90DF90CF90BF90AF900895FC0125
:1007D000448155816081718181E495E00C94BA0374
:1007E000FC01538D448D252F30E0842F90E0821B37
:1007F000930B541710F0CF96089501970895FC01BC
:10080000918D828D981761F0A28DAE0FBF2FB11D13
:100810005D968C91928D9F5F9F73928F90E008956B
:100820008FEF9FEF0895FC01918D828D981731F025
:10083000828DE80FF11D858D90E008958FEF9FEF79
:100840000895FC01918D228D892F90E0805C9F4F4F
:10085000821B91098F739927089581E495E00E9486
:10086000210421E0892B09F420E0822F089580E003
:1008700090E0892B29F00E942D0481110C94000036
:100880000895FC01A48DA80FB92FB11DA35ABF4F25
:100890002C91848D90E001968F739927848FA6897F
:1008A000B7892C93A089B1898C91837080648C93D3
:1008B000938D848D981306C00288F389E02D808182
:1008C0008F7D80830895EF92FF920F931F93CF93B4
:1008D000DF93EC0181E0888F9B8D8C8D98131AC07B
:1008E000E889F989808185FF15C09FB7F894EE8962
:1008F000FF896083E889F9898081837080648083BF
:100900009FBF81E090E0DF91CF911F910F91FF9009
:10091000EF900895F62E0B8D10E00F5F1F4F0F73B1
:100920001127E02E8C8D8E110CC00FB607FCFACF6C
:10093000E889F989808185FFF5CFCE010E944104C5
:10094000F1CFEB8DEC0FFD2FF11DE35AFF4FF0823D
:100950009FB7F8940B8FEA89FB8980818062CFCFA3
:10096000CF93DF93EC01888D8823B9F0AA89BB89E6
:10097000E889F9898C9185FD03C0808186FD0DC0D1
:100980000FB607FCF7CF8C9185FFF2CF808185FFF2
:10099000EDCFCE010E944104E9CFDF91CF910895C0
:1009A00020912E0530912F052817390771F4909169
:1009B0002D0580912C05981741F0E0912D05F0E070
:1009C000E451FB4F808190E008958FEF9FEF0895F1
:1009D0000895EF92FF920F931F93CF93DF93DC0163
:1009E0005C96ED90FC905D97E114F10479F481E060
:1009F00090E013969C938E93129790E080E0DF91A5
:100A0000CF911F910F91FF90EF9008955196ED9126
:100A1000FC91529750968C915097982F90950FB7C4
:100A20005E962C915E97122F127021FD6095F894BE
:100A30002081112319F1282B2083E7012197F1F759
:100A400028E0462F50E0308160FF1AC0382B3083F9
:100A5000E7012197F1F7BA0175956795215089F75C
:100A6000112381F08081892380830FBF5C968D9153
:100A70009C910197F1F781E090E0C1CF2923DCCF71
:100A80003923E5CF9081892BEFCF20912E0530912E
:100A90002F052817390761F480912C0520912D0529
:100AA00090E0805C9F4F821B91098F739927089576
:100AB00090E080E0089520912E0530912F052817B1
:100AC0003907B9F490912D0580912C05981789F07C
:100AD000E0912D05F0E0E451FB4F808120912D0540
:100AE00030E02F5F3F4F2F73332720932D0590E089
:100AF00008958FEF9FEF089590E080E0089560E003
:100B000089E00E94D50160E088E00C94D501FC01E9
:100B100001900020E9F73197AF01481B590BBC0148
:100B200081E495E00C94BA038F929F92AF92BF92AA
:100B30000F931F93CF93DF93CDB7DEB7A1970FB677
:100B4000F894DEBF0FBECDBF19A2423008F44AE0D0
:100B50008E010F5D1F4F842E912CB12CA12CA5016D
:100B600094010E94ED14E62FB901CA01EA30F4F4B1
:100B7000E05DD801EE938D01232B242B252B79F7F3
:100B800090E080E0109719F0CD010E948705A196B2
:100B90000FB6F894DEBF0FBECDBFDF91CF911F918E
:100BA0000F91BF90AF909F908F900895E95CE1CF37
:100BB000CF92DF92EF92FF92CF93DF936B017C0194
:100BC0006DE281E495E00E946304EC0166277727DB
:100BD000CB016C197D098E099F094AE00E9494059A
:100BE0008C0F9D1FDF91CF91FF90EF90DF90CF9002
:100BF0000895BC01990F880B990B97FD0C94D805AB
:100C00004AE00C949405CF93DF93BC01990F880BB5
:100C1000990B97FF0CC00E94D805EC018AE291E085
:100C20000E9487058C0F9D1FDF91CF9108954AE0A8
:100C30000E949405F2CFCF93DF930E948705EC01C9
:100C40008AE291E00E9487058C0F9D1FDF91CF9172
:100C500008950C9487058DE291E00C942906CF93BA
:100C6000DF93C2E3D0E082E391E00E94290621975E
:100C7000D1F781E391E0DF91CF910C941B06FC0149
:100C800080819181009711F00C94B1150895EF9235
:100C9000FF920F931F93CF93DF93EC017B018A01A7
:100CA00088819981009729F02A813B812417350793
:100CB00088F4B8016F5F7F4F0E943A16009791F059
:100CC000998388831B830A832C813D81232B11F414
:100CD000FC0110821D830C83B701888199810E94D9
:100CE00000170CC088819981009711F00E94B115FE
:100CF000198218821D821C821B821A82CE01DF910A
:100D0000CF911F910F91FF90EF900895EF92FF9276
:100D10000F931F93CF93DF93CDB7DEB762970FB6D4
:100D2000F894DEBF0FBECDBF8C01CB01F80111825C
:100D3000108213821282158214824AE09E012F5F74
:100D40003F4F7901B9010E94820EF7010190002006
:100D5000E9F73197AF014E195F09B701C8010E9449
:100D6000470662960FB6F894DEBF0FBECDBFDF9187
:100D7000CF911F910F91FF90EF900895FC01118288
:100D800010821382128215821482FB0101900020CE
:100D9000E9F73197AF01461B570B0C9447061F929A
:100DA0000F920FB60F9211242F933F938F939F931F
:100DB000AF93BF9380913D0590913E05A0913F0573
:100DC000B09140053091380523E0230F2D3758F5B9
:100DD0000196A11DB11D2093380580933D05909388
:100DE0003E05A0933F05B093400580913905909151
:100DF0003A05A0913B05B0913C050196A11DB11D9E
:100E00008093390590933A05A0933B05B0933C0538
:100E1000BF91AF919F918F913F912F910F900FBEF6
:100E20000F901F90189526E8230F0296A11DB11D63
:100E3000D2CF1F920F920FB60F9211242F933F9390
:100E40004F935F936F937F938F939F93AF93BF93D2
:100E5000EF93FF9381E495E00E944104FF91EF91AD
:100E6000BF91AF919F918F917F916F915F914F91C2
:100E70003F912F910F900FBE0F901F9018951F92CA
:100E80000F920FB60F9211242F938F939F93EF938E
:100E9000FF93E0915105F09152058081E091570553
:100EA000F091580582FD1BC0908180915A058F5F9B
:100EB0008F7320915B05821741F0E0915A05F0E0B5
:100EC000EF5BFA4F958F80935A05FF91EF919F91B9
:100ED0008F912F910F900FBE0F901F9018958081CA
:100EE000F4CF1F920F920FB60F9211242F933F93BE
:100EF0004F935F936F937F938F939F93AF93BF9322
:100F0000EF93FF93E0912E05F0912F05309749F074
:100F1000A685B7858585968D91FF14C09C91892300
:100F2000A1F4FF91EF91BF91AF919F918F917F912C
:100F30006F915F914F913F912F910F900FBE0F9046
:100F40001F9018959C91892361F7A389B4899C917E
:100F50008589809589238C93868997890197F1F7F4
:100F6000608D718DA685B785558538E020E0CB0171
:100F70000197F1F7822F90E095958795282F4C9156
:100F8000452309F02068315091F7868D81FD209529
:100F900080912C0590E001968F73992730912D0553
:100FA000381799F0A0912C05B0E0A451BB4F2C93B9
:100FB00080932C05828D938D0197F1F7A389B489D5
:100FC0008C919589892B8C93ACCF868D8160868F8F
:100FD000F1CF109244051092430588EE93E0A0E013
:100FE000B0E08093450590934605A0934705B093E4
:100FF00048052AE031E0309342052093410525EC75
:1010000030E030934E0520934D0524EC30E03093D2
:10101000500520934F0520EC30E03093520520938B
:10102000510521EC30E0309354052093530522EC18
:1010300030E0309356052093550526EC30E0309390
:1010400058052093570510925A0510925B0510928F
:101050005C0510925D0510921B0610921A06809393
:101060001C0690931D06A0931E06B0931F068CE1EC
:1010700091E0909319068093180610922F06109213
:101080002E061092310610923006109233061092FE
:1010900032061092350610923406609136066E7F45
:1010A0006D7F609336066695617081E068278DE0FC
:1010B0000E94D50161E08DE00E940302E7E3F2E0C7
:1010C000E491E0932806E3E2F2E0E491F0E0EE0F31
:1010D000FF1FE45FFD4F8591949190932A068093C2
:1010E000290660E08CE00E9403028091360681FDB3
:1010F00004C061E08CE00E94D5018CE0809324065E
:10110000E6E3F2E0E491E0932506E2E2F2E0E49126
:10111000F0E0EE0FFF1FEE5FFD4F859194919093ED
:1011200027068093260664E371E082E196E00E9440
:10113000BE066EE371E08CE096E00E94BE066CE4B1
:1011400071E086E096E00E94BE0667E571E080E00F
:1011500096E00E94BE0663E671E08AEF95E00E9489
:10116000BE068EE08093EC058BE08093ED05E8E30E
:10117000F2E0E491E093EE05E4E2F2E0E491E09342
:10118000EF0580E89EE3A0E0B0E08093F405909343
:10119000F505A093F605B093F70580E18093DE0591
:1011A0008FE892E4A9E9B2E48093E3059093E40523
:1011B000A093E505B093E60580E090E0A0E2B1E4FD
:1011C0008093DF059093E005A093E105B093E205DD
:1011D0000895CF93DF93CDB7DEB7A7970FB6F894F6
:1011E000DEBF0FBECDBF789484B5826084BD84B568
:1011F000816084BD85B5826085BD85B5816085BD12
:1012000080916E00816080936E00109281008091C9
:101210008100826080938100809181008160809351
:101220008100809180008160809380008091B10076
:1012300084608093B1008091B00081608093B000A1
:1012400080917A00846080937A0080917A00826035
:1012500080937A0080917A00816080937A008091F7
:101260007A00806880937A001092C10061E08BE080
:101270000E94030261E08AE00E94030261E083E0D1
:101280000E94030261E085E00E94030260E087E0C3
:101290000E94030261E084E00E94030260E086E0B5
:1012A0000E94030261E089E00E94030261E088E09D
:1012B0000E94030262E08091EC050E9403022FB7B6
:1012C000F89480913D0590913E05A0913F05B09125
:1012D00040052FBF805D9740A109B1098093F005BB
:1012E0009093F105A093F205B093F30587E3809303
:1012F000F905E0915105F091520582E08083E0917B
:101300004D05F0914E051082E0914F05F09150058A
:101310008FEC808310925905E0915505F0915605A8
:1013200086E08083E0915305F091540580818061CF
:101330008083E0915305F09154058081886080831B
:10134000E0915305F0915405808180688083E0919D
:101350005305F091540580818F7D808364E670E0B1
:1013600080E090E00E9479020E942F068FE691E0D3
:101370000E941B060E942F0686E891E00E941B0631
:101380008CE891E00E941B068BE991E00E942906FF
:1013900082E196E00E94E7038BEC94E00E9429062C
:1013A0008CE096E00E94E70387EE94E00E941B0623
:1013B0000E942F0664E670E080E090E00E947902CF
:1013C00024E1322E8BE291E00E941B060E942F0640
:1013D00086EA91E00E941B060E942F068FEB91E0A7
:1013E0000E941B060E94AB02882351F08091ED05FC
:1013F0008B3030F08D3048F08551823008F473C066
:1014000060E070E080EC9FE71CC06091E80570E050
:1014100090E080E00E94F5102DEC3CEC4CEC5DE39C
:101420000E9454116B017C016091E70570E090E02F
:1014300080E00E94F5109B01AC01C701B6010E943B
:101440004A120E9428136B010E942B068BEE91E03A
:101450000E942906C6010E94F90587EF91E00E94CB
:101460001B060E942B068CE3C816D1040CF04DC05D
:1014700061E08BE00E94D50160E08AE00E94D50126
:1014800089EF91E00E941B0664EF71E080E090E03C
:101490000E94790260E08BE00E94D50160E08AE062
:1014A0000E94D501B601CE0101960E948606CE01AA
:1014B00001960E943F068BE291E00E941B060E946B
:1014C000AB02882349F08091ED058C3009F4AAC065
:1014D000B0F58B3009F450C0C12CD12C80ECE82E33
:1014E0008FE7F82E73C06091E7057091E8057627C5
:1014F0006727762790E080E00E94F3102DEC3CEC0B
:101500004CEC5DE30E9454119CCF60E08BE091E5D0
:10151000C916D1044CF00E94D50161E08AE00E9416
:10152000D5018DE092E0AECF0E94D50160E08AE067
:101530000E94D50181E292E00E941B06B3CF855143
:10154000823050F67090E905672D70E0762F66279F
:1015500066277F778091EA05682B90E080E00E9403
:10156000F3102DEC3CEC4CEC5DE30E9454116B014C
:101570007C0177FE2BC076C06091E90570E090E0B9
:1015800080E00E94F3106B017C011091EA0517FFC7
:101590000AC0AC019B0160E070E080E89FEB0E9414
:1015A00049126B017C011F70612F70E090E080E0B8
:1015B0000E94F5102DEC3CEC4CEC5DE30E945411C4
:1015C000A70196010E944A126B017C010E942B0622
:1015D00082E392E00E942906A7019601C701B601A5
:1015E0000E94B313882309F442C081E492E00E9470
:1015F00087058DE492E00E941B060E942B0620E0E6
:1016000030E040EF51E4C701B6010E94EE1087FFC1
:10161000C0C061E083E00E94D50181E592E00E94B4
:101620001B06D8C01091E905612F70E090E080E0C2
:101630000E94F3106B017C016091EA056F7070E00D
:1016400090E080E00E94F5102DEC3CEC4CEC5DE36A
:101650000E945411A70196010E944A126B017C015D
:1016600017FFB4CFF7FAF094F7F8F094AFCF260154
:101670003701E89477F82FEF3FEF4FE75FE7C301BB
:10168000B2010E94B31381110DC02FEF3FEF4FE75E
:101690005FE7C301B2010E94EE1018161CF485E446
:1016A00092E0A5CF2FEF3FEF4FE75FE4C701B60110
:1016B0000E945E1318161CF489E492E098CF2FEF75
:1016C0003FEF4FE75FECC701B6010E94EE1087FDC8
:1016D000F3CF20E030E0A901C701B6010E94EE106F
:1016E00087FF54C06DE281E495E00E946304C70166
:1016F000B60190582AE037ED43EA5BE30E944A12B4
:101700004B015C010E942F132B013C010E94F3103E
:101710009B01AC01C501B4010E9449124B015C015F
:101720004AE0C301B2010E9494056EE281E495E0B3
:101730000E94630420E030E040E251E4C501B401BE
:101740000E9454114B015C010E942F132B01712C3C
:10175000612C4AE0C301B2010E949405C301B201A9
:101760000E94F3109B01AC01C501B4010E94491213
:1017700020E030E040E251E40E9454110E942F1317
:1017800090E080E04AE00E94940533CFC701B601A3
:10179000B1CF20E030E040E252E4C701B6010E9440
:1017A0005E1318160CF0ECC161E08BE00E94D501CD
:1017B00060E08AE00E94D50189EF91E00E941B065B
:1017C00064EF71E080E090E00E94790260E08AE0DE
:1017D0000E94D5011BA21AA21DA21CA21FA21EA21A
:1017E0008E010F5F1F4F22E044E0C701B6010E9447
:1017F000640E009709F4D3C1FC0101900020E9F7C1
:101800003197AF01481B590BBC01CE0182960E9453
:101810004706CE0182960E943F068BE291E00E942D
:101820001B0684E792E00E941B068FE00E943F02A5
:10183000BC01990F880B990B0E94F5102AE939E930
:101840004CE453E40E94B6120E942813369E900185
:10185000379E300D112430933105209330050E94BE
:101860002B0685E992E00E9429068091300590912F
:1018700031050E94F90587EF91E00E941B060E9446
:101880002B06809130059091310544970CF094C15E
:101890008CEA92E00E941B0661E085E00E94D5017F
:1018A0000E942B068AEB92E00E941B068BE291E0DD
:1018B0000E941B066091300570913105CE010196A2
:1018C0000E948606CE0101960E943F068BE291E0BF
:1018D0000E941B0683EE92E00E941B0687E00E9496
:1018E000AC0190933305809332050E942B0683EF61
:1018F00092E00E94290680913205909133050E9462
:1019000003060E942B068091320590913305892BA6
:1019100009F059C161E084E00E94D50186E093E0BE
:101920000E941B060E942B0683E193E00E941B0687
:101930008BE291E00E941B0661E070E0809132052D
:1019400090913305892B11F070E060E0CE01019693
:101950000E948606CE0101960E943F068BE291E02E
:101960000E941B0680E793E00E941B0686E00E940F
:10197000AC0190933705809336050E942B0682E9CF
:1019800093E00E94290681E090E020913605309195
:101990003705232B11F090E080E00E9403060E949F
:1019A0002B068091360590913705209134053091B2
:1019B0003505009709F014C12115310509F010C152
:1019C00061E089E00E94D50160E088E00E94D501D5
:1019D0008FE993E00E941B060E942B068DEB93E09B
:1019E0000E941B0668E572E080E090E00E947902A8
:1019F0000E947F0581E090E0909335058093340547
:101A000061E070E08091360590913705892B11F0E7
:101A100070E060E0CE0101960E948606CE0101963C
:101A20000E943F068BE291E00E941B068091DE053A
:101A30000E943F02BC01990F880B990B0E94F51080
:101A40009B01AC0160E070EC8FE794E40E94B61259
:101A500020E030E040E85FE30E9449122091DF057A
:101A60003091E0054091E1055091E2050E9454114A
:101A70002091E3053091E4054091E5055091E6059C
:101A80000E94B6122EED37E341E350EC0E9463133F
:101A900022E434E349EE52E40E9454110E942813D8
:101AA0002B018EE394E00E941B060E942B0686E524
:101AB00094E00E942906C2010E94F9058BE694E099
:101AC0000E941B060E942B0699EE491693E05906C8
:101AD0000CF4C7C08FE694E00E941B06B201CE0151
:101AE00001960E948606CE0101960E943F060E9442
:101AF0002F068BE291E00E941B060E942F0687E9C9
:101B000094E00E941B060E942F068FEA94E00E9438
:101B10001B068EEB94E00E94290680E096E00E946E
:101B2000E7038BEC94E00E9429068AEF95E00E947F
:101B3000E70387EE94E00E941B068DEC94E00E9480
:101B40001B0666E970E080E090E00E9479028AED71
:101B500094E00E941B060E942F0664EF71E080E073
:101B600090E00E94790280E090E0892B09F42ACC71
:101B70000E942D04882309F425CC0E94000022CC69
:101B800060E08BE00E94D50160E08AE00E94D50110
:101B900060E083E00E94D50180E692E040CD8AA11A
:101BA0009BA1009711F00E94B1151BA21AA21FA2BF
:101BB0001EA21DA21CA22DCE60E085E00E94D501D0
:101BC0008EEC92E071CE60E084E00E94D5018FE25D
:101BD00093E00E941B060E942B0683E593E0A6CEAD
:101BE0002130310559F5009769F48FE993E00E949F
:101BF0001B060E942B0687ED93E00E941B060E94A5
:101C00007F05FECE019709F0FBCE60E089E00E94DF
:101C1000D50161E088E00E94D5018BEE93E00E943F
:101C20001B0668E572E080E090E00E9479020E9465
:101C30007F051092350510923405E2CE232B09F072
:101C4000DFCE019709F0DCCE85E094E00E941B0610
:101C50000E942B060E947F0589E194E00E941B06EA
:101C6000CFCE83E894E038CF8AEF95E00E943F061C
:101C700080E096E00E943F0686E096E00E943F06E4
:101C80008CE096E00E943F0682E196E00E943F06CB
:101C90008CE191E0909319068093180680912E05AF
:101CA00090912F058851964071F4E0912B06F091A8
:101CB0002C06908180912D06809589238083109237
:101CC0002F0510922E050895EF920F931F93CF9337
:101CD000DF93E80134E047FD34E1042E000C550B9E
:101CE00057FF03C0519541955109E32E022F242F30
:101CF000AE010E94A70ECE01DF91CF911F910F91EF
:101D0000EF900895BB274A3031F4992322F4BDE2C5
:101D1000909581959F4F0C948E0EBB27FB01552704
:101D2000AA27880F991FAA1FA41710F0A41B839538
:101D30005051B9F7A05DAA3308F0A95DA1930097AF
:101D400079F7B111B1931192CB010C94DE10A9E097
:101D5000B0E0EDEAFEE00C9418126A01F22EB02E0B
:101D6000102FFBE3AF2EA01608F41BE31F5F012F1B
:101D700027E0AE014F5F5F4F0E940610BC018981D2
:101D8000982F9970913009F43FC09BE2E1FC04C0A8
:101D90009E2D9170E0FC3AC05E2D5071E82FE870E6
:101DA00083FF46C084E0911101C083E0EF2DE81B62
:101DB0008F1508F0E0E0D6018E2F20E2552351F177
:101DC000992329F0D6019C93C60101966C019601D6
:101DD0002D5F3F4FE2FE24C08EE4D6018C9391E448
:101DE00011969C93119712968C93D9018E2F90E2A5
:101DF00081111BC0E20FF32FF11D10828EEF9FEFB8
:101E00002996ECE00C9434129DE2C6CF90E2C4CF48
:101E10002D9381508111FCCFCE0ED11CE0E0D0CFAC
:101E20008EE6D6018C9391E6DBCF9D938150E0CF77
:101E3000482F447082FF3DC084E0911101C083E0CF
:101E40008F1510F4EF2DE81BD6018E2F20E25523BD
:101E500009F1992329F0D6019C93C60101966C01E2
:101E600096012D5F3F4FE2FE1BC089E4D6018C93A3
:101E70008EE411968C93119786E412968C93D90177
:101E80008E2F90E2882309F4B5CF9D938150FACF2D
:101E90002D9381508111FCCFCE0ED11CE0E0D9CF23
:101EA00089E6D6018C938EE611968C93119786E67F
:101EB000E4CF9B0177FF02C030E020E0A1E0B0E07A
:101EC000911102C0B0E0A0E0F9013196AE0FBF1F42
:101ED0008B2C912CBB2009F461C05401EFEFAE1A9A
:101EE000BE0AAA0DBB1DFA161B0619F014F04F2DE1
:101EF0004A1B511188C0E3FC59C07601A42FB0E2FF
:101F0000A1114FC0C40ED11C992309F45BC040E05D
:101F1000D6011196F60190836D01552309F448C04E
:101F2000012F060F9A81582F507184FF03C09133FF
:101F300009F4015010160CF047C0093008F008E011
:101F4000EEE2FE2E5B01A01AB10885019194819406
:101F500091082F3F320729F4D601FC92F601319601
:101F60006F016217730794F1021713077CF5DB0109
:101F7000A21BB30BAA24A394B12CAC0EBD1EAA0DB8
:101F8000BB1D11968C9121503109D601119628154F
:101F90003905F4F0F60180836D01DBCFB12CA12C63
:101FA000A0CFF701B1937F01A150AACF9111B0CF7B
:101FB000D601942F50E302C05D9391509111FCCF54
:101FC000C40ED11C40E0ACCF01E0BACF80E3DBCF40
:101FD0006217730731F4963388F4953311F455235F
:101FE00069F0F6018083FD01842F90E2811108C021
:101FF000A40FB11D1C9290E080E002CF81E3F1CFED
:1020000091938150F3CF911183CF8ACF283008F07C
:1020100027E03327DA01990F311D87FD9160009683
:102020006105710539F432602E5F3D9330E32A95E6
:10203000E1F708959F3F30F080387105610509F0A0
:102040003C5F3C5F3D93913008F08068911DDF93C9
:10205000CF931F930F93FF92EF92192F987F96952E
:10206000E92F96959695E90FFF27EC5BFE4F992790
:102070003327EE24FF24A701E70105900894079475
:1020800028F4360FE71EF81E491F511D660F771FF3
:10209000881F991F0694A1F70590079428F4E70E6E
:1020A000F81E491F561FC11D770F881F991F661FF5
:1020B0000694A1F70590079428F4F80E491F561FBF
:1020C000C71FD11D880F991F661F771F0694A1F7A0
:1020D0000590079420F4490F561FC71FD81F990F6A
:1020E000661F771F881F0694A9F7849110951770B3
:1020F00041F0D695C79557954795F794E7941A956B
:10210000C1F7EAEEF0E0689415901591359165916C
:10211000959105907FE27395E118F10A430B560BF8
:10212000C90BD009C0F7E10CF11E431F561FC91F90
:10213000D01D7EF4703311F48A95E6CFE8940150F7
:1021400030F0080F0AF40027021708F4202F239517
:10215000022F7A3328F079E37D932A95E9F710C0AE
:102160007D932A9589F606949795679537951795E7
:102170001794E118F10A430B560BC90BD00998F0DC
:1021800023957E9173957A3308F070E37C93201346
:10219000B8F77E9170617D9330F0839571E37D9304
:1021A00070E32A95E1F71124EF90FF900F911F91B2
:1021B000CF91DF91992787FD90950895DC01FC016F
:1021C000672F71917723E1F7329704C07C916D936B
:1021D00070836291AE17BF07C8F308950E94301153
:1021E00008F481E00895E89409C097FB3EF49095C7
:1021F0008095709561957F4F8F4F9F4F9923A9F0E0
:10220000F92F96E9BB279395F6958795779567956E
:10221000B795F111F8CFFAF4BB0F11F460FF1BC0B2
:102220006F5F7F4F8F4F9F4F16C0882311F096E945
:1022300011C0772321F09EE8872F762F05C06623F3
:1022400071F096E8862F70E060E02AF09A95660FAC
:10225000771F881FDAF7880F9695879597F9089565
:10226000990F0008550FAA0BE0E8FEEF16161706A7
:10227000E807F907C0F012161306E407F50798F00F
:10228000621B730B840B950B39F40A2661F0232B28
:10229000242B252B21F408950A2609F4A140A695A4
:1022A0008FEF811D811D08950E9467110C94D81134
:1022B0000E94CA1138F00E94D11120F0952311F02C
:1022C0000C94C1110C94C71111240C940C120E948F
:1022D000E91170F3959FC1F3950F50E0551F629F70
:1022E000F001729FBB27F00DB11D639FAA27F00D6F
:1022F000B11DAA1F649F6627B00DA11D661F829F96
:102300002227B00DA11D621F739FB00DA11D621F7A
:10231000839FA00D611D221F749F3327A00D611D97
:10232000231F849F600D211D822F762F6A2F112479
:102330009F5750409AF0F1F088234AF0EE0FFF1FAC
:10234000BB1F661F771F881F91505040A9F79E3F03
:10235000510580F00C94C1110C940C125F3FE4F312
:10236000983ED4F3869577956795B795F795E79559
:102370009F5FC1F7FE2B880F911D9695879597F962
:10238000089597F99F6780E870E060E008959FEFF7
:1023900080EC089500240A941616170618060906FC
:1023A000089500240A9412161306140605060895CB
:1023B000092E0394000C11F4882352F0BB0F40F453
:1023C000BF2B11F460FF04C06F5F7F4F8F4F9F4F93
:1023D000089557FD9058440F551F59F05F3F71F015
:1023E0004795880F97FB991F61F09F3F79F087957C
:1023F0000895121613061406551FF2CF4695F1DF05
:1024000008C0161617061806991FF1CF8695710594
:10241000610508940895E894BB2766277727CB01C8
:1024200097F908952F923F924F925F926F927F9209
:102430008F929F92AF92BF92CF92DF92EF92FF92D4
:102440000F931F93CF93DF93CDB7DEB7CA1BDB0B80
:102450000FB6F894DEBF0FBECDBF09942A88398825
:1024600048885F846E847D848C849B84AA84B9842C
:10247000C884DF80EE80FD800C811B81AA81B98138
:10248000CE0FD11D0FB6F894DEBF0FBECDBFED014C
:1024900008955058BB27AA270E9461120C94D811A6
:1024A0000E94CA1138F00E94D11120F039F49F3FE8
:1024B00019F426F40C94C7110EF4E095E7FB0C9484
:1024C000C111E92F0E94E91158F3BA176207730787
:1024D0008407950720F079F4A6F50C940B120EF4FE
:1024E000E0950B2EBA2FA02D0B01B90190010C0124
:1024F000CA01A0011124FF27591B99F0593F50F43C
:10250000503E68F11A16F040A22F232F342F442793
:10251000585FF3CF469537952795A795F04053958B
:10252000C9F77EF41F16BA0B620B730B840BBAF05B
:102530009150A1F0FF0FBB1F661F771F881FC2F7C6
:102540000EC0BA0F621F731F841F48F487957795DA
:102550006795B795F7959E3F08F0B0CF9395880F94
:1025600008F09927EE0F9795879508950E94CA1253
:102570000C94D8110E94D11158F00E94CA1140F059
:1025800029F45F3F29F00C94C11151110C940C12E5
:102590000C94C7110E94E91168F39923B1F35523F4
:1025A00091F3951B550BBB27AA2762177307840766
:1025B00038F09F5F5F4F220F331F441FAA1FA9F3FC
:1025C00035D00E2E3AF0E0E832D091505040E695EA
:1025D000001CCAF72BD0FE2F29D0660F771F881F4B
:1025E000BB1F261737074807AB07B0E809F0BB0B3E
:1025F000802DBF01FF2793585F4F3AF09E3F510552
:1026000078F00C94C1110C940C125F3FE4F3983EE7
:10261000D4F3869577956795B795F7959F5FC9F73A
:10262000880F911D9695879597F90895E1E0660FBB
:10263000771F881FBB1F621773078407BA0720F034
:10264000621B730B840BBA0BEE1F88F7E09508959D
:102650000E942F136894B1110C940C1208950E94DB
:10266000F11188F09F5798F0B92F9927B751B0F022
:10267000E1F0660F771F881F991F1AF0BA95C9F706
:1026800014C0B13091F00E940B12B1E008950C9487
:102690000B12672F782F8827B85F39F0B93FCCF33A
:1026A000869577956795B395D9F73EF49095809583
:1026B000709561957F4F8F4F9F4F08950E94301105
:1026C00008F48FEF0895FA01EE0FFF1F30962105F1
:1026D0003105A1F16115710561F48038BFE39B07F5
:1026E00049F168949038810561F08038BFEF9B070D
:1026F00041F099234AF5FF3FE1053105210519F124
:10270000E8940894E795D901AA2329F4AB2FBE2FAA
:10271000F85FD0F310C0FF5F70F4A695E0F7F739CB
:1027200050F019F0FF3A38F49F779F930DD00F9037
:1027300007FC9058089546F00C94C71160E070E0D3
:1027400080E89FE308954FE79F775F934F933F9310
:102750002F930E9463142F913F914F915F910E949C
:1027600054110C94C0130E943011880B990B0895DA
:1027700029F416F00C94C1110C940B120C94C7118F
:102780000E94F111A8F39638A0F707F80F92E89489
:102790002BE33AEA48EB5FE70E946A110F920F922F
:1027A0000F924DB75EB70F920E94AB14E8E6F0E0CF
:1027B0000E94F2134F915F91EF91FF91E595EE1F0B
:1027C000FF1F49F0FE57E0684427EE0F441FFA95BB
:1027D000E1F74195550B0E9425140F9007FE0C94CC
:1027E00019140895DF93CF931F930F93FF92EF92E5
:1027F000DF927B018C01689406C0DA2EEF010E9403
:102800006711FE01E894A591259135914591559167
:10281000A6F3EF010E946112FE019701A801DA946C
:1028200069F7DF90EF90FF900F911F91CF91DF91AB
:1028300008959B01AC0160E070E080E89FE30C9498
:10284000B6120C94C1110C94DF140E94F111D8F34C
:102850009923C9F3940F511DA3F39150504094F064
:1028600059F0882332F0660F771F881F915050402F
:10287000C1F79E3F51052CF7880F911D96958795BE
:1028800097F908955F3FACF0983E9CF0BB27869582
:1028900077956795B79508F4B1609395C1F7BB0F2D
:1028A00058F711F460FFE8CF6F5F7F4F8F4F9F4F56
:1028B000E3CF0C940C1216F00C94DF140C94C71197
:1028C00068940C94C1110E94F111A8F39923C1F3EB
:1028D000AEF3DF93CF931F930F93FF92C92FDD27A2
:1028E00088232AF02197660F771F881FDAF720E0E8
:1028F00030E040E85FEB9FE3883920F0803E38F01D
:1029000021968F770E944A12E0E9F0E004C00E940D
:102910004A12EDEBF0E00E94F2138B01BE01EC01D4
:10292000FB2E6F5771097595771F880B990B0E94C5
:10293000F51028E132E741E35FE30E946711AF2D14
:102940009801AE01FF900F911F91CF91DF910E94EE
:1029500061120C94D811FA01DC01AA0FBB1F9B0174
:10296000AC01BF5728F4222733274427507820C0D2
:10297000B75190F4AB2F0024469537952795011C4D
:10298000A395D2F3002071F0220F331F441FB3959B
:10299000DAF30ED00C94491261307105A0E88A0771
:1029A000B94630F49B01AC016627772788279078D9
:1029B000309621F0208331834283538308959F3FD3
:1029C00031F0915020F4879577956795B795880FEA
:1029D000911D9695879597F90895A1E21A2EAA1B45
:1029E000BB1BFD010DC0AA1FBB1FEE1FFF1FA217BF
:1029F000B307E407F50720F0A21BB30BE40BF50BBC
:102A0000661F771F881F991F1A9469F76095709544
:102A1000809590959B01AC01BD01CF010895EE0F0B
:102A2000FF1F0590F491E02D09940F931F93CF930E
:102A3000DF938230910510F482E090E0E091390656
:102A4000F0913A0630E020E0B0E0A0E0309799F451
:102A50002115310509F44AC0281B390B24303105F2
:102A6000D8F58A819B816115710589F1FB019383FA
:102A70008283FE0111C04081518102811381481778
:102A80005907E0F04817590799F4109761F012962A
:102A90000C93129713961C933296CF01DF91CF912E
:102AA0001F910F9108950093390610933A06F4CFC1
:102AB0002115310551F04217530738F0A901DB0108
:102AC0009A01BD01DF01F801C1CFEF01F9CF909369
:102AD0003A0680933906CDCFFE01E20FF31F8193B2
:102AE00091932250310939832883D7CF209137061B
:102AF00030913806232B41F42091020130910301DB
:102B0000309338062093370620910001309101015F
:102B10002115310541F42DB73EB740910401509184
:102B20000501241B350BE0913706F0913806E217BA
:102B3000F307A0F42E1B3F0B2817390778F0AC01E0
:102B40004E5F5F4F2417350748F04E0F5F1F5093BD
:102B5000380640933706819391939FCFF0E0E0E0F1
:102B60009CCFCF93DF930097E9F0FC01329713825B
:102B70001282A0913906B0913A06ED0130E020E0D2
:102B80001097A1F420813181820F931F2091370685
:102B9000309138062817390709F061C0F0933806DC
:102BA000E0933706DF91CF910895EA01CE17DF0752
:102BB000E8F54A815B819E0141155105B1F7E901B4
:102BC000FB83EA8349915991C40FD51FEC17FD0788
:102BD00061F4808191810296840F951FE9019983A8
:102BE0008883828193819B838A83F0E0E0E0129660
:102BF0008D919C9113970097B9F52D913C91119768
:102C0000CD010296820F931F20913706309138062E
:102C10002817390739F6309751F510923A06109275
:102C20003906B0933806A0933706BCCFD383C2834E
:102C300040815181840F951FC817D90761F44E5FF9
:102C40005F4F88819981480F591F518340838A8142
:102C50009B81938382832115310509F0B0CFF093D6
:102C60003A06E09339069ECFFD01DC01C0CF138206
:102C70001282D7CFB0E0A0E0E0E4F6E10C941412A9
:102C80008C01009751F4CB010E9415158C01C801ED
:102C9000CDB7DEB7E0E10C943012FC01E60FF71F70
:102CA0009C0122503109E217F30708F49DC0D901B5
:102CB000CD91DC911197C617D70798F0C530D10593
:102CC00030F3CE0104978617970708F3C61BD70B7E
:102CD0002297C193D1936D937C93CF010E94B1153C
:102CE000D6CF5B01AC1ABD0A4C018C0E9D1EA09183
:102CF0003906B0913A06512C412CF12CE12C109759
:102D000031F580913706909138068815990509F0BC
:102D10005CC04616570608F058C08091000190919B
:102D20000101009741F48DB79EB740910401509185
:102D30000501841B950BE817F90708F055C0F093BF
:102D40003806E0933706F90171836083A0CF8D9137
:102D50009C91119712966C90129713967C901397F2
:102D6000A815B90559F56C0142E0C40ED11CCA146E
:102D7000DB0420F1AC014A195B09DA0112961597C0
:102D800080F06282738251834083D9016D937C937A
:102D9000E114F10471F0D7011396FC93EE931297AE
:102DA00076CF22968C0F9D1FF90191838083F301CA
:102DB000EFCFF0933A06E093390669CF48165906EB
:102DC00008F42C017D01D3019ACFCB010E94151587
:102DD0007C01009749F0AE01B8010E94F716C801C6
:102DE0000E94B115870153CF10E000E050CFFB01E6
:102DF000DC0102C001900D9241505040D8F7089577
:102E0000FB01DC0101900D920020E1F7089511E033
:102E1000C0E2D1E004C0FE010E940F152196C1322C
:082E2000D107C9F7F894FFCFB8
:102E280000003B068000000000006304BA03F003C2
:102E3800B0042104FF03130400000000E904BA03EE
:102E48007C05E80445055B05D0040D0A000909095D
:102E580009002A0057696669204E616D6500576947
:102E680066692050617373776F7264005365727678
:102E780065722041504900536572766572204E6133
:102E88006D6500486F7374204E756D6265720049F8
:102E98006E697469616C697A6174696F6E204F66D6
:102EA800204573703A004154204F4B0041542B4346
:102EB800574D4F44453D31204F4B0041542B43570C
:102EC8004A41503D2000476174686572696E672009
:102ED80053656E736F72277320446174613A0031D1
:102EE8002E204169722054656D7065726174757227
:102EF8006520262048756D69646974792053656E6C
:102F0800736F72284448543131290048756D6964DB
:102F1800697479203A2D002500436F6F6C696E67DC
:102F28002046616E2053746172746564004578614F
:102F3800757374202046616E2053746172746564E1
:102F480000537461626C65642048756D69646974C6
:102F5800790054656D70657261747572653A2D20DB
:102F6800006E616E00696E66006F766600C2B043DF
:102F780000486561746572205374617274656400F9
:102F8800537461626C65642054656D706572617418
:102F980075726500322E20536F696C204D6F69730E
:102FA800747572652053656E736F7228594C2D368F
:102FB80039293A2D004D6F69737475726520496E11
:102FC80020536F696C2825293A2D20004E656564C9
:102FD800205761746572696E670057617465722065
:102FE80050756D702049733A2D204F4E200057615F
:102FF8007465722050756D702049733A2D204F46C4
:10300800462000322E204C44522053656E736F7256
:103018003A2D004C6967687420496E74656E73694F
:1030280074793A2D20004C6F772053756E6C696760
:103038006874004172746966696369616C204C69DF
:1030480067687473204172653A2D204F4E200052F4
:103058006571756972656420416D6F756E74204F76
:10306800662053756E6C6967687420507265736565
:103078006E74004172746966696369616C204C6999
:1030880067687473204172653A2D204F46462000C8
:10309800342E205261696E20446574656374696FCB
:1030A8006E2053656E736F722846432D3337293A65
:1030B8002D005261696E5374617465203D2000577C
:1030C8006865617468657220436F6E646974696FBE
:1030D8006E203A2D205261696E696E6700437572E1
:1030E8007461696E732041726520436C6F73696EF9
:1030F800672E2E2E2E2E004375727461696E732012
:1031080041726520436C6F73656400437572746126
:10311800696E7320417265204F70656E696E672E07
:103128002E2E2E2E004375727461696E73204172C3
:1031380065204F70656E65640057686561746865E1
:103148007220436F6E646974696F6E203A2D204354
:103158006C65617220576865617468657200352E08
:1031680020434F322053656E736F72284D512D31B5
:103178003335293A2D00416972205175616C6974A3
:1031880079202870706D293A2D200070706D0057D5
:1031980061726E696E67204861726D66756C204158
:1031A800697200416972205175616C6974792049AE
:1031B8007320476F6F640053656E64696E672044BF
:1031C80061746120546F205365727665723A0041CC
:1031D800542B4349504D55583D31204F4B004154D5
:1031E8002B43495053544152543D302C0041542BE9
:1031F80043495053454E443D300041542B434950B8
:0C320800434C4F53453D30204F4B00001D
:00000001FF
