:10080000E4F5A0F5B0F59075A049120A5375907FF4
:10081000120A59759007120A5975907D120A597576
:10082000906D120A59759066120A5975904F120A06
:100830005975905B120A59759006120A5975903FC6
:100840007F647E00120A5D75A04C120A5375907F7A
:10085000120A59759007120A5975907D120A597536
:10086000906D120A59759066120A5975904F120AC6
:100870005975905B120A59759006120A5975903F86
:100880007F647E00120A5D75A04A120A5375907F3C
:10089000120A59759007120A5975907D120A5975F6
:1008A000906D120A59759066120A5975904F120A86
:1008B0005975905B120A59759006120A5975903F46
:1008C0007F647E00120A5D75A061120A5375907FE5
:1008D000120A59759007120A5975907D120A5975B6
:1008E000906D120A59759066120A5975904F120A46
:1008F0005975905B120A59759006120A5975903F06
:100900007F647E00120A5D75A051120A5375907FB4
:10091000120A59759007120A5975907D120A597575
:10092000906D120A59759066120A5975904F120A05
:100930005975905B120A59759006120A5975903FC5
:100940007F647E00120A5D75A00975B003120A5615
:1009500075907F120A59759007120A5975907D1289
:100960000A5975906D120A59759066120A59759058
:100970004F120A5975905B120A59759006120A595E
:1009800075903F7F647E00120A5D75A089120A533C
:1009900075907F120A59759007120A5975907D1249
:1009A0000A5975906D120A59759066120A59759018
:1009B0004F120A5975905B120A59759006120A591E
:1009C00075903F7F647E00120A5D75A04975B0087E
:1009D000120A5675907F120A59759007120A5975B6
:1009E000907D120A5975906D120A59759066120A17
:1009F0005975904F120A5975905B120A59759006F5
:100A0000120A5975903F7F647E00120A5D75A049F5
:100A100075B004120A5675907F120A597590071224
:100A20000A5975907D120A5975906D120A59759080
:100A300066120A5975904F120A5975905B120A593D
:100A4000759006120A5975903F7F647E00120A5D08
:030A500002080792
:0A0A530075B00275906F7F327E00CF
:100A5D00E4FDFCC3ED9FEC9E5015E4FBFA0BBB00CF
:0F0A6D00010ABA04F8BBFBF50DBD00010C80E4D3
:010A7C002257
:03000000020A7D74
:0C0A7D00787FE4F6D8FD758107020800C0
:00000001FF
