:1008B4004449474954414C204E4F54494345004212
:1008C4004F415244004954275320484F4C49444116
:1008D400590054494D4500484F4C59444159204909
:0708E40053004F564552007E
:10080000D2A0D2A1E4F5B0C2A2C2A3C2A47F381282
:10081000097B7F0F12097B7F0612097B7F0112097A
:100820007B7F8012097B7BFF7A0879B47D0E1208EA
:10083000EB7FC512097B7BFF7A0879C37D0512081F
:10084000EB7FF47E0112094F20A0337F0112097B58
:100850007F8312097B7BFF7A0879C97D0C1208EB34
:100860007FC312097B7BFF7A0879D67D041208EBDF
:100870007F647E0012094F7F0112097B80CA20A18C
:10088000C77F0112097B7F8312097B7BFF7A08797E
:10089000DB7D0A1208EB7FC312097B7BFF7A0879A4
:1008A000E67D041208EB7F647E0012094F7F01127F
:0408B000097B8094AC
:08094700C2A3D2A47F057E00CB
:10094F00E4FDFCC3ED9FEC9E5015E4FBFA0BBB00DE
:0F095F00010ABA04F8BBFBF50DBD00010C80E4E2
:01096E002266
:0A097B008FB0C2A2120947C2A422E5
:0808EB008B088A09890A8D0BB4
:1008F300E4F50CE50CC3950B501CAB08AA09A90A37
:10090300850C8275830012091AF5B0D2A212094729
:06091300C2A4050C80DD0A
:0109190022BB
:0300000002096F83
:0C096F00787FE4F6D8FD75810C020800CA
:10091A00BB010CE58229F582E5833AF583E0225092
:10092A0006E92582F8E622BBFE06E92582F8E222DC
:0D093A00E58229F582E5833AF583E49322F6
:00000001FF
