:1008CA004D59204E414D45204953005052454D2027
:0708DA004755444E41520056
:10080000E4F5B0C2A0C2A1C2A27F381208ED7F0CED
:100810001208ED7F061208ED7F011208ED7F8312AA
:1008200008ED7BFF7A0879CA7D0A1208467FC31259
:1008300008ED7BFF7A0879D57D0B1208467F647E30
:06084000001208AA80D29C
:0808A200C2A1D2A27F057E0075
:1008AA00E4FDFCC3ED9FEC9E5015E4FBFA0BBB0084
:0F08BA00010ABA04F8BBFBF50DBD00010C80E488
:0108C900220C
:0A08ED008FB0C2A01208A2C2A2221E
:080846008B088A09890A8D0B59
:10084E00E4F50CE50CC3950B501CAB08AA09A90ADC
:10085E00850C82758300120875F5B0D2A01208A21D
:06086E00C2A2050C80DDB2
:010874002261
:030000000208E112
:0C08E100787FE4F6D8FD75810C02080059
:10087500BB010CE58229F582E5833AF583E0225038
:1008850006E92582F8E622BBFE06E92582F8E22282
:0D089500E58229F582E5833AF583E493229C
:00000001FF
