:10094A0048454C4C4F00574F524C4400464F525763
:10095A004152440053574954434800524556455260
:10096A005345004C45465400524947485400535495
:05097A004F5045440050
:10080000E4F5A0F5B0C2B0C2B1C2B2F5B0C2B3C295
:10081000B4C2B5C2B6D280D281D282D283D2847F12
:1008200038120A0B7F0F120A0B7F06120A0B7F0188
:10083000120A0B7F80120A0B7BFF7A09794A7D0529
:1008400012097F7FC0120A0B7BFF7A0979507D0560
:10085000020939208030D2B3C2B4D2B5C2B67F010A
:10086000120A0B1209DF7F80120A0B7BFF7A0979CB
:10087000567D0712097F7FC0120A0B7BFF7A097928
:100880005E7D0602093920812CC2B3D2B4C2B512F2
:100890000A071209DF7F80120A0B7BFF7A0979654C
:1008A0007D0812097F7FC0120A0B7BFF7A09795EEF
:1008B0007D06020939208227C2B3120A031209DF1A
:1008C0007F80120A0B7BFF7A09796D7D0412097F04
:1008D0007FC0120A0B7BFF7A09795E7D06805A2061
:1008E000832FD2B3C2B4C2B5C2B67F01120A0B12B3
:1008F00009DF7F80120A0B7BFF7A0979727D05126E
:10090000097F7FC0120A0B7BFF7A09795E7D068022
:100910002820842BD2B3120A031209DF7F80120A27
:100920000B7BFF7A0979787D0612097F7FC0120A56
:100930000B7BFF7A09795E7D0612097F020853C29C
:0A094000B3C2B4C2B5C2B602085338
:0809DB00C2B1D2B27F057E001B
:1009E300E4FDFCC3ED9FEC9E5015E4FBFA0BBB004A
:0F09F300010ABA04F8BBFBF50DBD00010C80E44E
:010A020022D1
:080A0300D2B4D2B5D2B67F01D6
:0A0A0B008FA0C2B01209DBC2B222B4
:08097F008B088A09890A8D0B1F
:10098700E4F50CE50CC3950B501CAB08AA09A90AA2
:10099700850C827583001209AEF5A0D2B01209DB6F
:0609A700C2B2050C80DD68
:0109AD002227
:03000000020A15DC
:0C0A1500787FE4F6D8FD75810C02080023
:1009AE00BB010CE58229F582E5833AF583E02250FE
:1009BE0006E92582F8E622BBFE06E92582F8E22248
:0D09CE00E58229F582E5833AF583E4932262
:00000001FF
