:1008000041544530004154442B3931393832313765
:1008100035373234393B0041542B434D47463D3147
:100820000041542B434D47533D222B393139383247
:10083000313735373234392200536F6D656F6E654D
:1008400020697320456E74657220696E20796F751A
:090850007220506C6163652E00FA
:0908A0007BFF1208E87F327E00A4
:1008A900E4FDFCC3ED9FEE6480F8EC64809850157C
:1008B900E4FBFA0BBB00010ABA04F8BBFBF50DBD5A
:0508C90000010C80DEBF
:0108CE002207
:0C08FF00758920759850758DFDD28E22F1
:080917008F993099FDC299226D
:1008E8001208CFFF600C120917740129F9E43AFACB
:0708F80080EE7F0D020917DD
:100859001208FF7A0879001208A030A0FD7BFF7A00
:100869000879051208E87FE87E031208A97A087951
:10087900171208A07BFF7A0879211208E87F321243
:1008890008A97BFF7A0879391208E87F321208A98A
:070899007F1A12091780C34A
:0300000002090BE7
:0C090B00787FE4F6D8FD758107020859DA
:1008CF00BB010689828A83E0225002E722BBFE0227
:0908DF00E32289828A83E493225A
:00000001FF
